:020000040800F2
:10000000480D0120B1020008B5260008D5240008DB
:10001000B12600086D0400085D31000800000000F2
:10002000000000000000000000000000F1010008D6
:100030008B050008000000004D020008C9280008D8
:10004000CB020008CB020008CB020008CB0200085C
:10005000CB020008B7260008CB020008990500086B
:10006000CB020008CB020008CB0200087104000894
:10007000CB020008CB020008CB020008CB0200082C
:10008000CB020008CB020008CB020008CB0200081C
:10009000CB020008CB020008CB020008CB0200080C
:1000A000CB020008CD290008CB020008CB020008D3
:1000B000CB020008CB020008CB020008CB020008EC
:1000C000CB020008CB020008CB020008CB020008DC
:1000D000B9260008CB020008CB020008CB020008BA
:1000E0008D050008CB020008CB020008CB020008F7
:1000F000CB020008CB020008CB020008CB020008AC
:10010000CB020008CB020008CB020008CB0200089B
:10011000CB020008B52A0008CB020008CB02000879
:10012000CB020008CB020008CB020008CB0200087B
:10013000CB020008CB020008CB020008CB0200086B
:10014000CB020008CB020008CB020008CB0200085B
:10015000CB020008CB020008CB020008CB0200084B
:10016000CB020008CB020008CB020008CB0200083B
:10017000CB020008CB0200080000000000000000D5
:10018000CB020008CB020008CB020008CB0200081B
:10019000CB020008CB02000800000000CB020008E0
:1001A000CB020008CB0200080000000000000000A5
:1001B000CB0200080000000000000000CB02000895
:1001C000CB020008CB020008CB020008CB020008DB
:1001D000CB020008CB020008DFF810D000F00AF9CB
:1001E0000048004741350008AFF30080480D01206A
:1001F0002C4B19680868B0E8F04F80F30988BFF30A
:100200006F8F4FF0000080F31188704700000000EE
:1002100008480068006880F308884FF0000080F309
:10022000148862B661B6BFF34F8FBFF36F8F00DFE4
:1002300000BF00BF08ED00E0DFF80C00016841F4EA
:1002400070010160704700BF88ED00E0EFF30980A6
:10025000BFF36F8F134B1A681EF0100F08BF20ED0D
:10026000108A20E9F04F106009B44FF0500080F37D
:100270001188BFF34F8FBFF36F8F04F0D5FC4FF0A1
:10028000000080F3118809BC19680868B0E8F04FD5
:100290001EF0100F08BFB0EC108A80F30988BFF37E
:1002A0006F8F70473C000020EFF30580704700001F
:1002B0000648804706480047FEE7FEE7FEE7FEE700
:1002C000FEE7FEE7FEE7FEE7FEE7FEE7B1290008EE
:1002D000D90100082DE9F05F0546002092469B46B3
:1002E00088460646814640241BE02846414647464C
:1002F000224600F06EF853465A46C01A914110D378
:1003000011461846224600F055F82D1A67EB0108F1
:100310004F4622460120002100F04CF817EB00095F
:100320004E41201EA4F10104DFDC484631462A4636
:100330004346BDE8F09F40EA01039B0703D009E074
:1003400008C9121F08C0042AFAD203E011F8013BC1
:1003500000F8013B521EF9D27047D2B201E000F81A
:10036000012B491EFBD270470022F6E710B5134659
:100370000A4604461946FFF7F0FF204610BD10B5A7
:10038000044604E00B7800F8013B03B1491C521EFF
:10039000F8D2204610BD30B505460020034600E0E7
:1003A0005B1C934205D2EC5CC85C201A01D1002C86
:1003B000F6D130BD202A04DB203A00FA02F10020F9
:1003C00070479140C2F1200320FA03F31943904093
:1003D0007047202A04DB203A21FA02F000217047FE
:1003E00021FA02F3D040C2F120029140084319469D
:1003F00070470000064C074D06E0E06840F001033E
:1004000094E8070098471034AC42F6D3FFF7E8FEB3
:10041000B8630008D863000810B50122D1020D4866
:1004200000F06FFD4FF47A7003F0BBF800224FF438
:100430000061084800F065FD4FF47A7003F0B1F8F0
:100440000122D102034800F05CFD012003F0A9F86D
:1004500010BD00000000024010B5022102480068F3
:1004600003F01AF910BD00002800002000BFFEE7CD
:1004700010B5024800F0BCF910BD00004801002092
:100480000146087810381823B0FBF3F20848805C66
:10049000C865032A05D908686FF30900001D88653F
:1004A00003E008686FF309008865886D70470000F5
:1004B00054630008014600208A6A8B69CBB932B1C7
:1004C000012A0DD0022A03D0032A10D10EE000BF6A
:1004D000CB6A03F08073B3F1807F00D1012007E085
:1004E000CB6AB3F1C07F00D1012001E000E000BF82
:1004F00034E08B69B3F5005F1AD132B1012A07D01D
:10050000022A03D0032A11D10AE000BF01200EE025
:10051000CB6A03F08073B3F1807F00D1012006E045
:10052000CB6AB3F1C07F00D1012000E000BF15E02D
:1005300032B1012A05D0022A04D0032A0CD103E0EB
:1005400000BF00BF012008E0CB6A03F08073B3F165
:10055000807F00D1012000E000BF00BF704730B5B0
:100560000468246824F4802405682C6004686360AF
:100570008468402C04D10468A2600468E16003E050
:100580000468A1600468E26030BD704710B54FF4A4
:10059000805000F09FFB10BD10B5022000F09AFBC8
:1005A00010BD704710B5002201B909E0012901D141
:1005B0000A0205E0022901D10A0201E04FF440726B
:1005C0000E4B1B6823F440730C4C236023461B68BE
:1005D0001343236023461B6823F0780323602346DC
:1005E0001B68022444EAC0042343044C23602346CE
:1005F0001B6843F48033236010BD0000103C0240B0
:10060000074A126822F44072054B1A601A461268B3
:100610001A601A46126842F001021A6001707047AF
:10062000103C024010B50D49096821F440710B4C93
:1006300021602146096841F4407121602146096822
:1006400041F001012160026000BF00BF00BFBFF3A5
:100650006F8F00BF00BF00BF436010BD103C024061
:10066000084A126822F44072064B1A601A46126851
:1006700042F480721A601A46126842F001021A604F
:1006800001807047103C0240084A126822F4407210
:10069000064B1A601A46126842F400721A601A4633
:1006A000126842F001021A6001607047103C02407B
:1006B0002A48006800F0100040B12948C06940F0A5
:1006C00010002749C86110202449086023480068A9
:1006D00000F0200040B12248C06940F008002049E5
:1006E000C86120201D4908601C48006800F04000D7
:1006F00040B11B48C06940F004001949C86140205E
:10070000164908601548006800F0800040B11448A0
:10071000C06940F002001249C86180200F4908609A
:100720000E48006800F4807048B10D48C06940F080
:1007300001000B49C8614FF4807008490860074800
:10074000006800F0020040B10548C06940F0200098
:100750000349C86102200149086070470C3C02400F
:100760000C0D002070B50446002500201449C86116
:1007700000F0CEFB054609E0601C38B124B100F062
:10078000C7FB401BA04201D9032070BD0D48006883
:1007900000F480300028EFD10A48006800F0010022
:1007A00010B10120074908600648006800F4F9709C
:1007B00018B1FFF77DFF0120E7E70020E5E7000023
:1007C0000C0D00200C3C0240014691F83500022837
:1007D00003D08020486501207047052081F835004E
:1007E0000868006820F001000A6810600020F3E744
:1007F000F8B50446002000908C4800684FF416516C
:10080000B0FBF1F7A56D2E6894F85C1008208840C5
:10081000304098B12068006800F0040070B1206892
:10082000006820F004002168086094F85C1008203B
:100830008840A860606D40F00100606594F85C102D
:1008400001208840304068B12068406900F0800095
:1008500040B194F85C1001208840A860606D40F0C1
:100860000200606594F85C1004208840304068B154
:100870002068006800F0020040B194F85C10042089
:100880008840A860606D40F00400606594F85C10DA
:1008900010208840304078B32068006800F00800DD
:1008A00050B394F85C1010208840A860206800685D
:1008B00000F4802080B12068006800F4002028B98E
:1008C000206CC8B12046216C884715E0A06C98B117
:1008D0002046A16C88470FE02068006800F4807013
:1008E00028B92068006820F0080021680860206CA2
:1008F00010B12046216C884794F85C102020884075
:100900003040002865D02068006800F01000002802
:100910005FD094F85C1020208840A86094F83500DF
:10092000052828D12068006820F01600216808609A
:100930002068406920F0800021684861206C08B977
:10094000A06C28B12068006820F0080021680860C9
:1009500094F85C103F208840A86000BF002084F815
:10096000340000BF012084F83500206D10B120460E
:10097000216D8847F8BD2068006800F4802080B1B0
:100980002068006800F4002028B9606C10B120468F
:10099000616C88471DE0E06BD8B12046E16B884769
:1009A00017E02068006800F4807068B9206800686B
:1009B00020F010002168086000BF002084F8340097
:1009C00000BF012084F83500E06B10B12046E16BD8
:1009D0008847606D38B3606D00F00100F0B105200C
:1009E00084F835002068006820F001002168086064
:1009F00000BF0098401C0090B84200D905E0206874
:100A0000006800F001000028F3D100BF00BF002003
:100A100084F8340000BF012084F83500E06C10B188
:100A20002046E16C884700BFA4E7000038000020A2
:100A30002DE9F0410446002500F06AFA074614B992
:100A40000120BDE8F081606A00B100BF00BF002056
:100A500084F8340000BF022084F835002068006864
:100A600020F00100216808600AE000F051FAC01B84
:100A7000052805D920206065032084F83500E0E7CB
:100A80002068006800F001000028EED120680568A9
:100A900021480540D4E901010843E1680843216980
:100AA000084361690843A1690843E1690843216A71
:100AB00008430543606A042803D1D4E90B010843C5
:100AC0000543206805602068456925F00705606AD0
:100AD0000543606A04280DD1A06A0543E06A48B165
:100AE0002046FFF7E7FC28B140206065012084F82C
:100AF0003500A6E7206845612046FFF7C1FC0646A1
:100B000094F85C103F208840B060002060650120B0
:100B100084F83500002094E73F8010E02DE9F0478D
:100B200004460D4616461F464FF00008D4F858906C
:100B300000BF94F83400012802D10220BDE8F087FC
:100B4000012084F8340000BF94F83500012825D135
:100B5000022084F83500002060653B463246294675
:100B60002046FFF7FCFC94F85C103F208840C9F851
:100B700008002068006840F0160021680860206CBA
:100B800028B12068006840F00800216808602068EB
:100B9000006840F001002168086006E000BF002006
:100BA00084F8340000BF4FF002084046C6E700005A
:100BB00070B5044600F0ACF906462546681C10B135
:100BC00004480078054400BF00F0A2F9801BA84249
:100BD000FAD370BD340000200348006840F00040A4
:100BE0000149086000207047103C02402DE9F041A7
:100BF00006460F4614461D464FF0010800BF1F4829
:100C0000007E012802D10220BDE8F08101201B49AD
:100C1000087600BF4CF25030FFF7A4FD8046B8F1D3
:100C2000000F23D126B9E1B23846FFF7E9FC12E004
:100C3000012E04D1A1B23846FFF712FD0BE0022EBF
:100C400004D121463846FFF71FFD04E022462B461B
:100C50003846FFF7E7FC4CF25030FFF783FD804643
:100C60000748006820F001000549086000BF002027
:100C70000249087600BF4046C6E700000C0D002080
:100C8000103C024000200949096801F0004159B1B7
:100C90000749064A0C3A1160064911600349096880
:100CA00001F0004101B1012070470000103C0240FA
:100CB00023016745AB89EFCD10B50446022C02D164
:100CC00002F07AFA04E0B4F5805F01D1FFF7C4FBCB
:100CD00010BD000010B5044604480068204020B153
:100CE000024804602046FFF7E7FF10BD143C0140B6
:100CF000F8B502460B460025002400200021D7E06D
:100D0000012606FA01F51E6806EA0504AC4273D115
:100D10005E68012E08D05E68022E05D05E68112E36
:100D200002D05E68122E13D190684F000326BE4099
:100D3000B0434F00DE68BE403043906050680126EB
:100D40008E40B0431E79C6F300168E40304350608B
:100D5000D0684F000326BE40B0434F009E68BE409F
:100D60003043D0605E68022E02D05E68122E13D12E
:100D7000CF0802F1200656F827004E07F70E0F267F
:100D8000BE40B0434F07FF0E1E69BE403043CF0840
:100D900002F1200646F8270010684F000326BE40E7
:100DA000B0431E7906F003064F00BE40304310608A
:100DB0005E6806F08056B6F1805F78D100BF0026ED
:100DC00000963D4E366846F480463B4F3E603E46B8
:100DD000366806F48046009600BF00BF374E8F0885
:100DE00056F827008E07370F0F26BE40B043344E0B
:100DF000B24202D100261FE059E0324EB24201D188
:100E0000012619E0304EB24201D1022614E02F4EE5
:100E1000B24201D103260FE02D4EB24201D1042689
:100E20000AE02C4EB24201D1052605E02A4EB2421C
:100E300001D1062600E007268F073F0FBE40304352
:100E40001E4E8F0846F82700244E3068A0435E6887
:100E500006F48036B6F5803F00D120431F4E306047
:100E6000361D3068A0435E6806F40036B6F5003FD4
:100E700000D12043194E361D3060361D3068A04326
:100E80005E6806F48016B6F5801F00D12043134E2D
:100E900008363060361D3068A0435E6806F40016E0
:100EA000B6F5001F00D120430C4E0C363060491CB3
:100EB0001029FFF425AFF8BD44380240083801403E
:100EC000000002400004024000080240000C024002
:100ED000001002400014024000180240003C014093
:100EE000024613690B400BB1012000E0002070475F
:100EF00042690A408A4202D10A04826100E08161AB
:100F000070470AB1816101E00B0483617047000002
:100F100001480068704700002C000020034800686A
:100F20000349097808440149086070472C000020F3
:100F30003400002010B50D48006840F400700B49E3
:100F400008600846006840F4806008600846006851
:100F500040F480700860032000F0CAF8002000F020
:100F600007F800F04BF8002010BD0000003C0240E4
:100F700070B588B0044600250026002221461920BD
:100F800000F078F8192000F065F800BF002001900B
:100F90001648006840F001001449086008460068DF
:100FA00000F00100019000BF00BF02A903A800F0FB
:100FB00075F900F0ABF905460D48B5FBF0F0461E9B
:100FC0000C480D49086040F2E7310B48C1604660AB
:100FD00000210161816000F030FF20B9064800F077
:100FE00047FF08B070BD0120FBE700004438024015
:100FF00040420F00000001405008002008B500BF2B
:10100000002000901248006840F4804010490860B9
:101010000846006800F48040009000BF00BF00BF99
:1010200000200090081F006840F08050091F0860F1
:101030000846006800F08050009000BF00BF00220A
:101040001146052000F016F8052000F003F808BD51
:101050004438024001460846002809DB00F01F031F
:1010600001229A4043099B0003F1E023C3F80021C9
:1010700000BF70472DE9F05F80460D4616460027F9
:1010800002F06EF8074639462A46334601F007005B
:10109000C0F1070ABAF1040F02D94FF0040A01E0C7
:1010A000C0F1070AD14600F1040ABAF1070F02D2D3
:1010B0004FF0000A01E0A0F1030AD4464FF0010A04
:1010C0000AFA09FAAAF1010A0AEA020A0AFA0CFA69
:1010D0004FF0010B0BFA0CFBABF1010B0BEA030B0E
:1010E0004AEA0B042146404602F042F8BDE8F09F70
:1010F00000BF00F00702064B19684FF6FF031940C6
:10110000044B0B4343EA0221014B196000BF7047B7
:101110000CED00E00000FA0570B504460D460CB970
:10112000012070BD5848006800F00F00A84209D2A5
:1011300055490D700846006800F00F00A84201D024
:101140000120EEE7207800F0020002281DD120786F
:1011500000F00400042805D14C48006840F4E05039
:101160004A490860207800F00800082805D147485F
:10117000006840F46040454908604448006820F039
:10118000F000A168084341490860207800F00100A0
:10119000A8B36068012807D13C4808380068C0F34C
:1011A0004040B8B90120BCE76068022802D06068FE
:1011B000032807D1354808380068C0F3406048B9B3
:1011C0000120AEE7314808380068C0F3400008B994
:1011D0000120A6E72D48006820F00300616808435D
:1011E0002A490860FFF794FE064609E0FFF790FEE3
:1011F000801B41F28831884202D9032091E707E041
:101200002248006800F00C006168B0EB810FEDD15E
:101210001D48006800F00F00A84209D91A490D7056
:101220000846006800F00F00A84201D0012078E7CE
:10123000207800F00400042807D11448006820F446
:10124000E050E168084311490860207800F0080088
:10125000082808D10D48006820F46040216940EA60
:10126000C1000A49086000F061F808490968C1F343
:101270000311074A515CC8400649086006480068E7
:10128000FFF776FE00204CE7003C024008380240A1
:101290005C63000838000020300000200F2202604C
:1012A0000D4A126802F0030242600B4A126802F013
:1012B000F0028260084A126802F4E052C260064AF4
:1012C000126802F46042D2080261044A126802F015
:1012D0000F020A607047000008380240003C0240DC
:1012E00001480068704700003800002000B5FFF793
:1012F000F7FF04490968C1F38221034A515CC840E1
:1013000000BD0000083802406C63000800B5FFF71C
:10131000E7FF04490968C1F34231034A515CC84000
:1013200000BD0000083802406C6300082DE9F0475A
:10133000002400250026A1462548006800F00C0086
:1013400020B1042805D008283AD105E0DFF88490C0
:1013500039E0DFF8849036E01D48001F006800F097
:101360003F041B48001F006800F4800078B11A4851
:101370001749091F0968C1F38811A0FB01700146D4
:10138000224600233846FEF7A5FF05460EE0114829
:101390000F49091F0968C1F38811A0FB01700146BC
:1013A000224600233846FEF795FF05460848001FF1
:1013B0000068C0F30140401C4600B5FBF6F902E0AE
:1013C000DFF8109000BF00BF4846BDE8F08700007E
:1013D000083802400024F400001BB700F8B50446AA
:1013E0000025207800F00100002874D0F74800683C
:1013F00000F00C0004280DD0F448006800F00C0048
:10140000082813D1F148001F006800F48000B0F5EF
:10141000800F0BD1ED4808380068C0F34040002829
:1014200059D06068002856D10120F8BD00BF60681F
:10143000B0F5803F08D1E5480838006840F48030B6
:10144000E249083908601EE06068B0F5A02F0DD1B0
:10145000DE480838006840F48020DC49083908601C
:101460000846006840F4803008600CE0D74808382F
:10147000006820F48030D5490839086008460068C3
:1014800020F48020086000BF606890B1FFF740FD45
:10149000054606E0FFF73CFD401B642801D9032008
:1014A000C3E7CA4808380068C0F340400028F1D0BC
:1014B00011E0FFF72DFD054606E0FFF729FD401B73
:1014C000642801D90320B0E7C04808380068C0F399
:1014D00040400028F1D1207800F0020002285FD1BE
:1014E000BA48006800F00C0058B1B848006800F035
:1014F0000C0008281CD1B548001F006800F48000CB
:10150000B0B9B24808380068C0F3400020B1E068C4
:10151000012801D0012088E7AC480838006820F095
:10152000F800216940EAC100A8490839086037E09D
:10153000E06800B30120A6490860FFF7E9FC054612
:1015400006E0FFF7E5FC401B022801D903206CE709
:101550009E4808380068C0F340000028F1D09B483E
:101560000838006820F0F800216940EAC100974976
:101570000839086014E0002095490860FFF7C8FCAE
:10158000054606E0FFF7C4FC401B022801D90320F2
:101590004BE78E4808380068C0F340000028F1D1BE
:1015A000207800F0080008282CD16069A8B101203B
:1015B00088490860FFF7ACFC054606E0FFF7A8FC89
:1015C000401B022801D903202FE780486C300068B7
:1015D000C0F340000028F1D014E000207D490860ED
:1015E000FFF796FC054606E0FFF792FC401B022839
:1015F00001D9032019E775486C300068C0F340003A
:101600000028F1D1207800F00400042870D10026D1
:101610006E483830006800F0805090B900BF00205C
:1016200000906A483830006840F08050674938318F
:1016300008600846006800F08050009000BF00BFBE
:1016400001266548006800F48070B0B962480068FF
:1016500040F4807060490860FFF75AFC054606E0D8
:10166000FFF756FC401B022801D90320DDE65A484B
:10167000006800F480700028F2D000BFA068012844
:1016800008D152486830006840F001004F49683185
:1016900008601DE0A06805280DD14C48683000683E
:1016A00040F004004949683108600846006840F08D
:1016B000010008600CE045486830006820F0010037
:1016C0004249683108600846006820F0040008605C
:1016D00000BFA068A8B1FFF71BFC054609E0FFF7B3
:1016E00017FC401B41F28831884202D903209CE656
:1016F00026E0364868300068C0F340000028EED08D
:1017000013E0FFF705FC054608E0FFF701FC401B6E
:1017100041F28831884201D9032086E62B4868309F
:101720000068C0F340000028EFD1012E07D1274800
:101730003830006820F0805024493831086000BFFC
:10174000A069D8B32148006800F00C00082861D0D7
:10175000A069022849D100201D490866FFF7D8FB7F
:10176000054606E0FFF7D4FB401B022801D9032001
:101770005BE6164808380068C0F340600028F1D1E5
:10178000D4E907010843616A40EA81110122A06A95
:10179000C2EB500041EA00412C20005D41EA0061AB
:1017A0003020005D41EA00700849091F08600120EF
:1017B00007490866FFF7ACFB05460FE02CE0FFF792
:1017C000A7FB401B022809D903202EE60838024057
:1017D00000004742800E4742007000400F480068FA
:1017E000C0F340600028EAD016E000200C490866EB
:1017F000FFF78EFB054606E0FFF78AFB401B022839
:1018000001D9032011E605480068C0F340600028B4
:10181000F2D101E0012008E6002006E6003802408F
:101820000000474270470000F8B50446206846684B
:1018300020688568C5F3801048B905F0010030B113
:10184000C6F3801018B12046216C8847F8BDC5F357
:10185000400030B1C6F3C01018B12046616C884713
:10186000F4E7C5F3401030B9C5F3801018B9C5F3DB
:10187000002000287CD0C6F3401000287DD0C5F39E
:101880008010F0B194F8510003280ED0606D40F044
:101890000400606500BF002000902068C0680090D0
:1018A00020688068009000BF0BE000BF002000901F
:1018B0002068C068009020688068009000BF00BF6A
:1018C000C4E7C5F3401088B1606D40F00100606569
:1018D00000BF0020009020688068009020680068A9
:1018E00020F040002168086000BF00BFC5F3002061
:1018F00058B1606D40F00800606500BF00200090A6
:1019000020688068009000BF00BF606D78B32068D9
:10191000406820F0E00021684860012084F8510010
:1019200006F00200022802D006F0010008B3206889
:10193000406820F0030021684860E06C50B1104816
:10194000E16C0865E06CFEF73FFF18B1606D40F098
:1019500040006065A06C50B10948A16C0865A06C9E
:10196000FEF732FF18B1606D40F04000606503E0A3
:1019700003E02046FFF756FF68E700BF66E7000078
:10198000C926000810B504460CB9012010BD606AD4
:1019900000B900BF0021A16294F8510028B90020CD
:1019A00084F85000204600F033F8022084F85100FB
:1019B0002068006820F0400021680860D4E9010137
:1019C0000843E16808432169084361690843218BA2
:1019D00001F400710843E1690843216A0843A16AE0
:1019E0000843216808600421A06901EA1040616A87
:1019F0000843216848602068C06920F400602168BD
:101A0000C86100206065012084F851000020BDE716
:101A100010B586B00446142101A8FEF7A5FC1F49A5
:101A20002068884238D100BF002000901C48006820
:101A300040F480401A4908600846006800F480407D
:101A4000009000BF00BF00BF002000901448103875
:101A5000006840F00200124910390860084600682A
:101A600000F00200009000BF00BF4FF46040019002
:101A7000022002900020039003200490052005908E
:101A800001A90848FFF734F9002211462420FFF786
:101A9000F1FA2420FFF7DEFA06B010BD003800404E
:101AA00040380240000402402DE9F84304468846CD
:101AB00016461D464FF000096068B0F5827F0DD1D3
:101AC000A06858B9042084F8510033464246414684
:101AD0002046009500F09AF8BDE8F88300BF94F81E
:101AE0005000012801D10220F6E7012084F85000BF
:101AF00000BFFFF70DFA074694F85100012802D005
:101B00004FF0020978E0B8F1000F00D016B94FF09D
:101B1000010971E0042084F8510000206065C4F8D8
:101B20003880A687E6872063A086E086206460640C
:101B3000A068B0F5004F05D12068006820F480400F
:101B4000216808602068006800F04000402805D047
:101B50002068006840F0400021680860E068F8B93B
:101B60001AE02068806800F0010050B12068007B16
:101B7000A16B0870A06B401CA063E08F401EE08743
:101B80000AE0FFF7C5F9C01BA84201D3681C00B9E1
:101B900015B94FF003092FE0E08F0028E1D11EE0D6
:101BA0001AE02068806800F0010050B12068C06829
:101BB000A16B0880A06B801CA063E08F401EE087B3
:101BC0000AE0FFF7A5F9C01BA84201D3681C00B9C1
:101BD00015B94FF003090FE0E08F0028E1D13A4634
:101BE0002946204600F07AFD08B120206065606D2E
:101BF00008B14FF0010900BF012084F8510000BF77
:101C0000002084F8500000BF484665E72DE9FF5FDB
:101C10000446884691461D460E9E012002900020F3
:101C2000019000BF94F85000012803D1022004B0B5
:101C3000BDE8F09F012084F8500000BFFFF768F96D
:101C4000074694F851B060680390AA46BBF1010FB3
:101C50000BD00398B0F5827F04D1A06810B9BBF116
:101C6000040F02D002200190DBE0B8F1000F03D096
:101C7000B9F1000F00D015B901200190D1E094F81E
:101C80005100042802D0052084F85100002060652E
:101C9000C4F83890E587A587C4F83080E586A58626
:101CA000206460642068006800F04000402805D08F
:101CB0002068006840F0400021680860E068B0F5E6
:101CC000006F4AD1606810B1BAF1010F09D1206BE1
:101CD00000882168C860206B801C2063E08E401E55
:101CE000E08633E02068806800F00200022810D10E
:101CF000E08E70B1029801280BD1206B008821681A
:101D0000C860206B801C2063E08E401EE0860020AF
:101D100002902068806800F0010068B1E08F58B13F
:101D20002068C068A16B0880A06B801CA063E08F56
:101D3000401EE08701200290FFF7EAF8C01BB04286
:101D400004D3701C10B1032001906AE0E08E0028DB
:101D5000C8D1E08F0028C5D14AE0606810B1BAF15F
:101D6000010F09D1206B007821680873206B401C9B
:101D70002063E08E401EE08634E02068806800F03A
:101D80000200022810D1E08E70B1029801280BD118
:101D9000206B007821680873206B401C2063E08E64
:101DA000401EE086002002902068806800F001005C
:101DB00068B1E08F58B12068C068A16B0870A06B53
:101DC000401CA063E08F401EE08701200290FFF7D7
:101DD0009FF8C01BB04201D3701C00B916B9032094
:101DE00001901EE0E08E0028C7D1E08F0028C4D10A
:101DF0003A463146204600F0BBFC20B1012001905C
:101E0000202060650DE0A06850B900BF0020009060
:101E10002068C068009020688068009000BF00BF04
:101E200000BF012084F8510000BF002084F850005A
:101E300000BF0198FBE67047704710B504460CB927
:101E4000012010BD94F83D0028B9002084F83C0022
:101E5000204600F00CF8022084F83D00211D206887
:101E600000F0BCFD012084F83D000020E9E7704748
:101E700001460868C06840F001000B68D860086837
:101E8000806800F00702062A05D00868006840F064
:101E900001000B68186000207047704710B50446B9
:101EA00020680069C0F34000D8B12068C068C0F362
:101EB0004000B0B16FF00200216808610120207776
:101EC0002068806900F0030018B12046FFF7E5FFA5
:101ED00005E0204600F0ADF8204600F0ABF8002009
:101EE000207720680069C0F38000D8B12068C068FE
:101EF000C0F38000B0B16FF00400216808610220D7
:101F000020772068806900F4407018B12046FFF700
:101F1000C4FF05E0204600F08CF8204600F08AF867
:101F20000020207720680069C0F3C000D8B1206885
:101F3000C068C0F3C000B0B16FF00800216808614C
:101F4000042020772068C06900F0030018B1204603
:101F5000FFF7A3FF05E0204600F06BF8204600F0F5
:101F600069F80020207720680069C0F30010D8B11C
:101F70002068C068C0F30010B0B16FF01000216895
:101F80000861082020772068C06900F4407018B10B
:101F90002046FFF782FF05E0204600F04AF8204681
:101FA00000F048F8002020772068006900F0010068
:101FB00058B12068C06800F0010030B16FF0010036
:101FC00021680861204600F037F820680069C0F3F6
:101FD000C01058B12068C068C0F3C01030B16FF0B5
:101FE0008000216808612046FFF725FF206800690E
:101FF000C0F3801058B12068C068C0F3801030B1C1
:102000006FF0400021680861204600F021F8206848
:102010000069C0F3401058B12068C068C0F3401098
:1020200030B16FF02000216808612046FFF704FFFF
:1020300010BD70477047000010B504460349206882
:10204000884201D1FEF76AFF10BD00000000014088
:10205000704770472DE9F0470446206805682068FE
:10206000C668206847694FF00008C14605F00F08B0
:10207000B8F1000F0AD105F0200038B106F02000B9
:1020800020B1204600F0A4FDBDE8F087B8F1000FB4
:1020900072D007F0010018B906F4907000286BD0D8
:1020A00005F0010030B106F4807018B1E06B40F02B
:1020B0000100E06305F0040030B107F0010018B141
:1020C000E06B40F00200E06305F0020030B107F081
:1020D000010018B1E06B40F00400E06305F0080077
:1020E00048B106F0200010B907F0010018B1E06B0C
:1020F00040F00800E063E06B70B305F0200028B109
:1021000006F0200010B1204600F062FD2068406912
:10211000C0F38019E06B00F0080010B9B9F1000FAE
:1021200023D0204600F02AFD2068406900F04000DE
:10213000402816D12068406920F04000216848619D
:10214000606B50B11748616B0865606BFEF73CFB34
:1021500010B1606B016D88470CE02046FFF779FFF6
:1021600008E02046FFF775FF04E02046FFF771FF07
:102170000020E06388E7FFE705F0800030B106F05B
:10218000800018B1204600F07FFF7DE705F0400099
:1021900030B106F0400018B1204600F0FFFC73E7B4
:1021A00000BF71E7C52A000810B504460CB901202C
:1021B00010BDA06900B100E000BF94F8390028B953
:1021C000002084F83800204600F028F8242084F805
:1021D00039002068C06820F400502168C86020469B
:1021E00000F04AFD2068006920F4904021680861F1
:1021F0002068406920F02A00216848612068C06892
:1022000040F400502168C8600020E063202084F87A
:10221000390084F83A000020CAE7000010B586B003
:102220000446142101A8FEF79FF82E492068884231
:1022300056D100BF002000902B48006840F4801069
:10224000294908600846006800F48010009000BF2B
:1022500000BF00BF0020009023481038006840F005
:1022600002002149103908600846006800F00200A9
:10227000009000BF00BF602001900220029001206A
:102280000390032004900B20059001A91748FEF746
:102290002FFD174817490860C00548600021154800
:1022A0008160C1604FF48061016100214161816101
:1022B000C1614FF40031016200214162FEF7B8FBB9
:1022C00008B1FEF76EF900BF0A486063846300BF7F
:1022D000002204213520FEF7CDFE3520FEF7BAFEA0
:1022E00006B010BD005000404038024000040240DB
:1022F000106002404801002077B581B004461546C1
:1023000094F83A00202850D1029800B115B9012064
:1023100004B070BD00BF94F83800012801D102203C
:10232000F6E7012084F8380000BF0298A062A58576
:102330000020E063222084F83A001D48616BC863E6
:102340001C48616B08641C48616BC8640020616BA9
:10235000086502AE32682368191D2B46606BFEF7D4
:10236000DDFB00BF0020009020680068009020681E
:102370004068009000BF00BF00BF002084F8380014
:1023800000BF2068C06840F480702168C860206881
:10239000406940F00100216848612068406940F0D0
:1023A0004000216848610020B2E70220B0E7000049
:1023B000292B00086F2B0008D92A000810B5044605
:1023C000094884420ED101220849FFF795FF0748CA
:1023D00000780749074A1278885406480078401C5C
:1023E0000449087010BD000008010020900800207A
:1023F000A40800201800002070472DE9F843044687
:102400000D4616461F464FF0000994F83900202863
:102410005DD105B116B90120BDE8F88300BF94F87D
:102420003800012801D10220F6E7012084F83800A5
:1024300000BF0020E063212084F83900FEF768FD2A
:102440008146A684E68400BF002084F8380000BFDF
:102450002BE0E08C401EE084A068B0F5805F16D1D0
:102460004B46002280212046009700F041FE08B133
:102470000320D1E7A846B8F80000C0F3080021689F
:102480004860206908B9AD1C0FE06D1C0DE04B469B
:10249000002280212046009700F02AFE08B1032088
:1024A000BAE715F8010B21684860E08C0028D0D10C
:1024B0004B46002240212046009700F019FE08B14B
:1024C0000320A9E7202084F839000020A4E7022097
:1024D000A2E7704700BFFEE708B500BF00200090EC
:1024E0000A48006840F4001008490860084600687F
:1024F00000F40010009000BF00BF002204210B2058
:10250000FEF7B8FD0B20FEF7A5FD08BD30380240F0
:1025100000B587B0142102A8FDF726FF00BF0020F8
:1025200001903F48006840F080003D49086008463F
:10253000006800F08000019000BF00BF00BF0020D5
:1025400001900846006840F00100086008460068F5
:1025500000F00100019000BF00BF00BF002001900B
:102560000846006840F0020008600846006800F075
:102570000200019000BF00BF012221212948FEF77F
:10258000C0FC00224FF450612648FEF7BAFC40F62A
:10259000015002900120039000200490059002A9B0
:1025A0002048FEF7A5FB022002901F48039001205F
:1025B000049002A91B48FEF79BFB202002900120FB
:1025C0000390002004900120059002A91548FEF711
:1025D0008FFB4FF480500290144803900020049029
:1025E00002A91348FEF784FB4FF4805002900020AC
:1025F0000390049002A90B48FEF77AFB0022062103
:102600000720FEF737FD0720FEF724FD00220621F4
:102610002820FEF72FFD2820FEF71CFD07B000BD87
:10262000303802400000024000002110000011106C
:102630000004024010B50E480E4908604FF4827045
:10264000486000210B488160C160016141614FF425
:10265000007181612021C1610021016241628162BA
:102660000A21C162FFF78EF908B1FDF79AFF10BD8C
:1026700000380040B000002010B50B480B4908603E
:102680004FF4E1304860002108488160C160016179
:102690000C21416100218161C161FFF785FD08B115
:1026A000FDF77FFF10BD0000005000400801002032
:1026B00000BFFEE77047704710B50248FFF7B4F857
:1026C00010BD0000B000002070B50546AC6B0020C6
:1026D000E087E0862046FFF7A5F870BDF8B5044610
:1026E0000E4615466068B0F5827F0DD1A068B0F542
:1026F000004F03D0A068B0F5806F05D12068006856
:1027000020F04000216808606068B0F5827F1FD12A
:10271000A068B0F5806F0DD033460022802120469E
:10272000009500F05BF808B3606D40F02000606534
:102730000320F8BD3346002201212046009500F019
:102740004DF898B1606D40F0200060650320F0E71F
:102750003346002201212046009500F03FF828B1C1
:10276000606D40F0200060650320E2E70020E0E7B4
:102770007CB504460D461646164800681821B0FB85
:10278000F1F01549B0FBF1F04FF47A714843019034
:102790006068B0F5827F0DD12B4600228021204653
:1027A000009600F01BF898B1606D40F02000606565
:1027B00003207CBD00BF019800B908E00198401ECD
:1027C000019020688068C0F3C0100028F3D100BFDA
:1027D0000020EEE73800002040420F002DE9F041D4
:1027E00004460E4617461D46DDF818803EE0681C7C
:1027F000D8B3FEF78DFBA0EB0800A84200D2A5BB22
:102800002068406820F0E000216848606068B0F50A
:10281000827F0DD1A068B0F5004F03D0A068B0F55D
:10282000806F05D12068006820F0400021680860B2
:10283000A06AB0F5005F0DD100BF2068006820F4E9
:102840000050216808602068006840F4005021684A
:10285000086000BF012084F8510000BF002084F808
:10286000500000BF0320BDE8F081FFE720688068CA
:102870003040B04201D1012000E00020B842B6D182
:102880000020F0E700BF20210D48FEF731FB0D4886
:102890000078022804D14FF47A7000F082FEF2E74B
:1028A0000848007820B94FF4FA7000F07AFEEAE7A1
:1028B000044800780128E6D1FA2000F072FEE2E731
:1028C000000002400400002010B500BF502080F33B
:1028D0001188BFF34F8FBFF36F8F00BF03F0E4F990
:1028E00018B14FF080500449086000BF002080F309
:1028F000118800BF10BD000004ED00E000B593B0EA
:10290000342106A8FDF730FD142101A8FDF72CFDA8
:1029100000BF002000902448006840F08050224909
:1029200008600846006800F08050009000BF00BFBB
:1029300000BF002000901D48006840F440401B4943
:1029400008600846006800F44040009000BF00BFE7
:10295000022006900120099010200A9002200C907D
:1029600000210D9108210E9164210F9102211091F7
:102970001191129106A8FEF731FD08B1FDF711FE85
:102980000F20019002200290002003904FF480500D
:10299000049000200590032101A8FEF7BDFB08B1BB
:1029A000FDF7FFFD13B000BD40380240007000404D
:1029B0000548006840F47000034908604FF000606B
:1029C000014980390860704788ED00E010B5024881
:1029D000FFF764FA10BD00005008002010B502682F
:1029E000294B98420ED0B0F1804F0BD0274B984224
:1029F00008D0274B984205D0264B984202D0264B50
:102A0000984203D122F070024B681A431E4B984241
:102A100020D0B0F1804F1DD01C4B98421AD01C4BD7
:102A2000984217D01B4B984214D01B4B984211D0A0
:102A30001A4B98420ED01A4B98420BD0194B984221
:102A400008D0194B984205D0184B984202D0184B29
:102A5000984203D122F44072CB681A4322F08003DB
:102A60004C6943EA040202608B68C3620B688362AC
:102A7000054B984202D0084B984201D10B69036381
:102A80000123436110BD000000000140000400402C
:102A900000080040000C00400004014000400140DC
:102AA000004401400048014000180040001C004064
:102AB0000020004010B50248FFF7CCFA10BD00001E
:102AC0000801002070B50546AC6B0020E085E0846D
:102AD0002046FFF7BEFA70BD70B506460025B46B00
:102AE00020684069C0F3C01594F83900212805D149
:102AF00025B10020E084204600F060F8206840699D
:102B0000C0F3801594F83A00222805D125B10020A1
:102B1000E085204600F032F8E06B40F01000E06302
:102B20002046FFF796FA70BD70B50546AC6B286875
:102B3000006800F48070B0B90020E0852068C068AB
:102B400020F480702168C8602068406920F001008E
:102B5000216848612068406920F040002168486190
:102B6000202084F83A002046FFF728FC70BD70B59D
:102B70000446A56B2846FFF73FFC70BD0168C96895
:102B800021F490710268D1600168496921F0010166
:102B900002685161202180F83A10704710B5044650
:102BA0002068C06820F040002168C860202084F8B8
:102BB00039002046FFF78DFC002010BD0168C96870
:102BC00021F0C0010268D160202180F839107047DF
:102BD00070B5044694F83A0022284AD1A068B0F5AE
:102BE000805F13D1A56A206940B920684068C0F3AE
:102BF00008002880A06A801CA06219E02068406854
:102C0000C0B22880A06A401CA06211E0206938B9D7
:102C100020684068C1B2A26A501CA062117007E02F
:102C20002068406800F07F01A26A501CA062117009
:102C3000E08D401E80B2E085C8B92068C06820F0F1
:102C400020002168C8602068C06820F48070216876
:102C5000C8602068406920F0010021684861202098
:102C600084F83A002046FFF7A9FB002070BD002041
:102C7000FCE70220FAE700002DE9F84F044620683F
:102C8000006920F44050E168084321680861216927
:102C9000A068084361690843E1690843009020681F
:102CA000C06849F20C618843009908432168C860F4
:102CB0002068406920F44070A16908432168486198
:102CC000E069B0F5004F7DD1EB49206888420BD018
:102CD000EA492068884207D0E9492068884203D041
:102CE000E849206888426FD1FEF710FB8146022038
:102CF0006168A0FB01510B461920A9FB00712A460F
:102D00003846FDF7E7FA6421B0FBF1F04FEA001A0C
:102D100002206168A0FB01510B461920A9FB00713C
:102D20002A463846FDF7D6FA074602206168A0FB1E
:102D300001510B461920A9FB00B12A465846FDF760
:102D4000C9FA6421B0FBF1F000EBC00101EB001007
:102D5000A7EB8000322101EBC0006421B0FBF1F051
:102D600000F0F8000AEB400A02206168A0FB015164
:102D70000B461920A9FB00712A463846FDF7AAFA2E
:102D8000074602206168A0FB01510B461920A9FBF0
:102D900000B12A465846FDF79DFA6421B0FBF1F0D8
:102DA00000EBC00101EB0010A7EB8000322101EB2A
:102DB000C0006421B0FBF1F000F00700504421682E
:102DC000886057E16EE0FFE7FEF790FA8146022047
:102DD0006168A0FB01510B461920A9FB00712A462E
:102DE0003846FDF777FA6421B0FBF1F04FEA001A9C
:102DF00002206168A0FB01510B461920A9FB00715C
:102E00002A463846FDF766FA074602206168A0FBAD
:102E100001510B461920A9FB00B12A465846FDF77F
:102E200059FA6421B0FBF1F000EBC00101EB001096
:102E3000A7EB8000322101EBC0006421B0FBF1F070
:102E400000F0F8000AEB400A02206168A0FB015183
:102E50000B461920A9FB00712A463846FDF73AFABD
:102E6000074602206168A0FB015003461920A9FB18
:102E700000B12A465846FDF72DFA6421B0FBF1F067
:102E800000EBC00101EB0010A7EB8000322101EB49
:102E9000C0006421B0FBF1F000F00700504421684D
:102EA0008860E7E07449206888420BD07349206845
:102EB000884207D072492068884203D0714920684F
:102EC00088426BD1FEF722FA814604206168A0FB9C
:102ED00001510B461920A9FB00712A463846FDF71F
:102EE000F9F9824604206168A0FB015003461920CD
:102EF000A9FB00712A463846FDF7ECF96421B0FBC6
:102F0000F1F000EBC00101EB0010AAEB80003221D0
:102F100001EB00106421B0FBF1F000F0F00A042096
:102F20006168A0FB015003461920A9FB00712A46E5
:102F30003846FDF7CFF96421B0FBF1F00AEB001A37
:102F400004206168A0FB01510B461920A9FB007108
:102F50002A463846FDF7BEF9074604206168A0FB03
:102F6000015003461920A9FB00B12A465846FDF737
:102F7000B1F96421B0FBF1F000EBC00101EB0010EE
:102F8000A7EB8000322101EB00106421B0FBF1F0CF
:102F900000F00F005044216888606BE0FEF7A6F94E
:102FA000814604206168A0FB015003461920A9FB5B
:102FB00000712A463846FDF78DF982460420616883
:102FC000A0FB015003461920A9FB00712A46384690
:102FD000FDF780F96421B0FBF1F000EBC00101EBDB
:102FE0000010AAEB8000322101EB00106421B0FB3D
:102FF000F1F000F0F00A04206168A0FB01500346E4
:103000001920A9FB007001462A463846FDF762F9EF
:103010006421B0FBF1F00AEB001A04206168A0FB08
:10302000017003461920A9FB00513A462846FDF7D6
:1030300051F9074604206168A0FB0150034619209E
:10304000A9FB00B12A465846FDF744F96421B0FBBC
:10305000F1F000EBC00101EB0010A7EB8000322182
:1030600001EB00106421B0FBF1F000F00F005044C0
:1030700021688860BDE8F88F00100140001401400D
:1030800000180140001C0140014691F83900212838
:103090002CD18868B0F5805F0FD10A6A1088C0F320
:1030A00008000B685860086918B9086A801C086233
:1030B00009E0086A401C086205E00B6A581C0862B7
:1030C00018780B685860C88C401E80B2C88458B904
:1030D0000868C06820F080000B68D8600868C06885
:1030E00040F040000B68D860002070470220FCE7E9
:1030F0002DE9F04104460D4617469846069E21E00C
:10310000701CF8B12EB1FDF703FFA0EB0800B04230
:1031100018D92068C06820F4D0702168C860206881
:10312000406920F0010021684861202084F83900BE
:1031300084F83A0000BF002084F8380000BF032064
:10314000BDE8F081206800682840A84201D1012034
:1031500000E00020B842D3D00020F1E700BFFEE736
:1031600002480068C0F30220704700000CED00E048
:1031700010B5002804DB0A07130E054A135406E0B5
:103180000A07140E034A00F00F031B1FD45410BD8E
:1031900000E400E018ED00E002E008C8121F08C1DA
:1031A000002AFAD170477047002001E001C1121FC8
:1031B000002AFBD17047000010B5012102480068C9
:1031C00000F06AFA10BD00001C00002070B5044633
:1031D000FDF758FD00BF8822002321461846FDF761
:1031E00005FD06466D1C0520FDF7E2FC0EB1052D20
:1031F000F1DBFDF7F1FC70BD10B564210348FDF76C
:10320000B3F800200249087010BD0000A408002097
:103210001800002010B54FF47A710348FDF7A4F8A8
:1032200000200249087010BD080900201A00002083
:1032300010B50446022203A12046FDF7A0F80220A3
:1032400010BD00004F4B000010B5034800F0BAF964
:103250000249086010BD0000B862000808000020A4
:1032600010B5034800F0AEF90249086010BD000037
:10327000DC6200081400002010B50446042203A1FB
:103280002046FDF77CF8042010BD00004E41434B62
:103290000000000010B50446062203A12046FDF7F9
:1032A0006EF8062010BD00004E4F4441544100000E
:1032B00086B000BF4FF0FF320121684600F01CFAD3
:1032C0009DE8070003AB07C3322000F06AF90398BA
:1032D0000828EFD102210948FDF702FE0546002D1E
:1032E000E8D100F053F80446022C03D1002001F08D
:1032F0002DF9DFE7022001F029F9DBE700000240A9
:1033000010B5FDF7BFFC02210B20FDF74BF9FDF7CF
:10331000B9FC10BD70B504460D46092210A1204627
:10332000FDF739F808B9002070BD0A220FA1204628
:10333000FDF731F808B90120F6E709220EA1204671
:10334000FDF729F808B90220EEE705220DA1204675
:10335000FDF721F808B90320E6E78020E4E7000044
:1033600053454E445F53414D500000005354415269
:10337000545F53414D50000053544F505F53414DE3
:1033800050000000455241534500000001480078BC
:10339000704700000400002008E001460A78FF2A78
:1033A00002D00A78882A00D103E0401C024A9042E9
:1033B000F3D900BF70470000FFFF0E0810B50246AA
:1033C0000B46002002E01C5C1454401C0728FADB6A
:1033D00010BD00000648014605E00A461378FF2BA1
:1033E00000D0481C491C034B9942F6D97047000095
:1033F00000000E08FFFF0E081CB5104C18E0214617
:103400006846FFF7DBFF684600F070F8012800D13E
:1034100011E0684600F076F8012804D1684600F013
:103420007CF820B907E02046FFF7B6FF0446E41D0C
:1034300003488442E3D900BF20461CBD00000E08AB
:10344000FFFF0E0810B5012291020248FDF759FD59
:1034500010BD00000000024000BFEFF3058008B17E
:10346000012070470020FCE700B587B01C22064908
:103470006846FCF760FF0021684600F06EF90349DA
:10348000086007B000BD0000386300082800002075
:1034900000B587B01C2206496846FCF74CFF0021A6
:1034A000684600F05AF90349086007B000BD000003
:1034B0001C6300081C00002010B5FFF78BFF0349B8
:1034C0000860FFF799FF0249086010BD2000002046
:1034D0002400002010B5FFF78FFEFFF79BFE01F0E0
:1034E0006BF8FFF7BDFE01F045F810BD0246012064
:1034F000002104E0535CFF2B00D00020491C072969
:10350000F8DB7047014601204A78552A00D0002098
:103510008A79AA2A00D000207047014600200A7844
:10352000882A00D101207047002003490968034A16
:10353000914200D30120704720000020FFFF0E08B9
:1035400088B0FDF7F7FCFFF7D9F9FEF7E1FFFEF7CA
:10355000C3FFFFF76FF8FFF78FF8FFF775FE1C2228
:103560000A4901A8FCF7E7FE002101A800F0F5F8E0
:1035700007490860FFF7AEFFFFF78AFFFFF79CFFE0
:10358000FFF772FF00F019F800BFFEE7C062000805
:103590000000002001460020842901D0CA1C1044EC
:1035A000704770B5044625460DB1294600E001215B
:1035B000084601F0DFF9002070BD10B501F0D0FA27
:1035C000002010BD10B50446606820B1012061687C
:1035D00001F07FFC10BD012001F06AFCFAE7000059
:1035E00038B50446002500200090FFF735FF90B164
:1035F0006946204601F0BEFE012801D0FF2038BDFB
:10360000009888B14FF0805008490860BFF34F8F91
:10361000BFF36F8F08E000231A461946204601F0D9
:1036200059FD012800D0FF252846E8E704ED00E019
:10363000F8B506460C46002000900EB98020F8BD73
:103640000025601C08B96D1E03E014B1254605B9BC
:103650000125FFF701FF98B16A460021304601F0CD
:10366000ADFF012801D0FF20E9E7009880B14FF0BD
:10367000805008490860BFF34F8FBFF36F8F07E09A
:103680002946304602F000F8012801D0FF20D6E795
:103690000020D4E704ED00E03EB504460D460020CE
:1036A00002900190FFF7D8FEB8B102A801AB012249
:1036B00029460090204602F02DFA012802D04FF052
:1036C00000403EBD029898B14FF080500949086013
:1036D000BFF34F8FBFF36F8F0AE001AB0122294682
:1036E000204602F083F9012802D04FF00040E8E7BD
:1036F0000198E6E704ED00E0FEB506460F461446E5
:10370000002001900025601C08B96D1E03E014B173
:10371000254605B90125FFF79FFE10B182200090D4
:1037200016E02B4601AA3946002002F061FB012871
:1037300006D015B9002000900AE04020009007E074
:103740000198002802DA8620009001E0082000900D
:103750009DE8070086E80700FEBD7FB504460D46DC
:10376000606998B1A06988B1B4F90800FFF712FF49
:103770000646D4E90510CDE9006102902B46226986
:10378000D4E9001002F0D4F8039013E0B4F9080073
:10379000FFF700FF064603A8CDE90060238A9AB22E
:1037A0002B46D4E9001002F091F8012802D0002045
:1037B00004B070BD0398FBE710B52B4801782B4887
:1037C000FFF7A8FD0446022C2AD003DC3CB1012CF3
:1037D00041D11CE0032C2CD0802C3CD13CE0FFF7E5
:1037E000D5FD02280DD1224800F024FE21490870A1
:1037F0000846007850B91E48FFF74CFD1D49087077
:1038000004E01B48FFF738FD1A4908702AE0184801
:10381000FFF70EFD17490870002000F097FE21E029
:103820001348FFF705FD13490870022000F08EFED3
:1038300018E0FFF7ABFD022807D1FFF761FD0C4848
:10384000FFF7F6FC0B49087004E00948FFF714FD88
:103850000849087006E000BF0548FFF70DFD05495F
:10386000087000BF00BF10BD18000020A408002091
:10387000080900201A0000202DE9F04105460E46F7
:103880001C4807681C480068001D00F0F3FE50B992
:103890001948006890F82C100120884017490968E1
:1038A000814316480160681C38B936B11248016876
:1038B000091D134800F034FF1AE07C190E48006817
:1038C0004460BC4207D20C480168091D0D480068DD
:1038D00000F00CFF0CE008480168091D0A48006868
:1038E00000F004FF09480068844201D207480460E0
:1038F000BDE8F081500000203C0000205400002072
:10390000480E002044000020400000206C000020F1
:1039100010B5044600F010FF23480068401C2249FF
:1039200008602248006840B92048046008460068E2
:1039300001280DD100F00CFA0AE01D48006838B9E2
:103940001A480068C06AE16A884201D817480460D2
:1039500018480068401C1749086094F82C10012092
:10396000884015490968084313490860E16A01EB7A
:103970008101124A02EB8100211D00F0D1FE00F00E
:1039800005FF0B48006868B108480068C06AE16A32
:10399000884207D24FF0805009490860BFF34F8F2B
:1039A000BFF36F8F10BD00004C0000203C000020D2
:1039B0005800002068000020540000206C0D0020FA
:1039C00004ED00E008B500F0B7FE12480068E8B961
:1039D000114800F07BFE114800F078FE0E481049B7
:1039E00008600E480F49086000200F4B0F4A0C2159
:1039F00000900A2001F0B2FA064908600846006803
:103A000020B10BA10348006800F078FF00F0BEFE73
:103A100008BD0000800000205C0E0020700E002019
:103A2000780000207C000020840E0020CC0E0020B6
:103A3000546D72510000000010B516E000F07CFEDD
:103A40000C48C068C468201D00F014FE0A480068D5
:103A5000401E0949086009480068401E074908607F
:103A600000F094FE204600F05FF80448006800284B
:103A7000E4D110BD340E00204C000020480000208E
:103A800070B504460D46206C70B1216CE0680144AD
:103A9000E160D4E90210884201D32168E160284640
:103AA000226CE168FCF747FC70BD2DE9F04104464B
:103AB0000F4615464FF00008A66B206C48B92068E9
:103AC00000282CD1A06802F0E3F980460020A06015
:103AD00025E07DB93946226C6068FCF72CFC216C2E
:103AE000606808446060D4E90101884217D3206807
:103AF000606014E03946226CE068FCF71CFC216C25
:103B0000E068411AE1602168E068884203D2216CD4
:103B1000A068411AE160022D01D106B1761E701C29
:103B2000A0634046BDE8F08110B5044694F851000A
:103B300030B9206B00F048FE204600F045FE1AE048
:103B400094F85100012803D1204600F03DFE12E018
:103B500094F85100022801D1012000E0002050B962
:103B600000BF502080F31188BFF34F8FBFF36F8FDA
:103B700000BF00BFFEE710BD01464A6A22B10A6BD2
:103B80001268C2F1070000E0002070470146084AB1
:103B9000126812680AB9012200E000220A600A686D
:103BA00022B9034A1268D268106800E0002070470A
:103BB0007800002030B54FF47A43174800F007042E
:103BC0002CB1C01D20F00700134C041B1B1B024628
:103BD000124C22600024114D6C60D018083820F07F
:103BE00007000F4C206000240D4D2D686C600C4DBB
:103BF0002D682C601146441A4C60094C24680C60F6
:103C0000084D4C682C60084D4C682C604FF0004407
:103C1000064D2C6030BD0000440F00208C000020B9
:103C2000940000209C00002098000020A0000020AC
:103C300000BFFFF701FF064800680128F9D94FF0DF
:103C4000805004490860BFF34F8FBFF36F8FF0E7D8
:103C50006C0D002004ED00E010B5044654B10020C6
:103C6000A06020600021E16000231A46194620462A
:103C700001F030FA10BD2DE9F04106460D46174619
:103C80009846069C0DB9246000E02760E663256431
:103C90000121204601F0D2F9BDE8F0812DE9FF5F56
:103CA00081460E469246DDE90E7B109CAAF101008A
:103CB000216B01EB800828F0070808F0070008B91D
:103CC000012000E0002050B900BF502080F311888F
:103CD000BFF34F8FBFF36F8F00BF00BFFEE786B10A
:103CE000002507E0715D04F134004155705D00B9B5
:103CF00002E06D1C102DF5D300BF002143200155BB
:103D000002E0002084F83400072F00D30627E76282
:103D100067640020A064201D00F0E5FC04F1180099
:103D200000F0E1FC2461C7F10700A061646200209B
:103D3000E06484F8500049464046039A00F064FB72
:103D40002060BBF1000F01D0CBF80040BDE8FF9F21
:103D500010B5002407E004EB84010F4A02EB810058
:103D600000F0B4FC641C072CF5D30C4800F0AEFC4A
:103D70000B4800F0ABFC0B4800F0A8FC0A4800F030
:103D8000A5FC0A4800F0A2FC044809490860044860
:103D90000849086010BD00006C0D0020F80D0020DF
:103DA0000C0E0020200E0020340E0020480E0020B3
:103DB000400000204400002010B50146164800E0F5
:103DC000006803688B42FBD30246436813448B426E
:103DD00004D143684C682344436001460A464B685B
:103DE00013440468A34211D10C4C03682468A34215
:103DF00008D04B680468646823444B6003681B6800
:103E00000B6005E0054B1B680B6001E003680B606D
:103E1000884200D0016010BD8C000020940000207A
:103E20002DE9F04104460D4616461F464FF00008A6
:103E300065602461B5420CD8F01BA169884202D3A9
:103E40004FF0010811E0211D0948006800F04EFC08
:103E50000BE0BE4204D2BD4202D34FF0010804E0A1
:103E6000211D0448006800F041FC4046BDE8F08197
:103E70007C0000207800002070B5054600F05CFC56
:103E8000A86B08B9012400E0002400F07FFC204664
:103E900070BD70B5054600F04FFCA86BE96B884219
:103EA00001D1012400E0002400F070FC204670BD28
:103EB000F8B505460F461A480068C068C468201D5A
:103EC00000F0D8FB94F8240000F00400E8B1A069E9
:103ED00041192B463A462046FFF7A2FFD8B10020F1
:103EE00003462A4601460090204602F0A3F9064602
:103EF00056B900BF502080F31188BFF34F8FBFF336
:103F00006F8F00BF00BFFEE705E094F8240020F0AB
:103F1000010084F824002046216A8847F8BD00008B
:103F20007800002070B586B08BE003980028FBDB9A
:103F3000059C606908B9012000E0002010B9201D2F
:103F400000F098FB02A800F0DDF8054603980A2867
:103F500075D2DFE800F009050739416306083A42E7
:103F600000BF00BF00BF00BF94F8240040F0010074
:103F700084F824000498A269811803462A46204642
:103F8000FFF74EFFF8B12046216A884794F82400D5
:103F900000F00400B8B1002000900498A169421814
:103FA00000231946204602F045F9064656B900BFDF
:103FB000502080F31188BFF34F8FBFF36F8F00BF86
:103FC00000BFFEE700BF3BE000BF94F8240020F0F4
:103FD000010084F8240033E000BF94F8240040F08E
:103FE000010084F824000498A061A06908B10120B0
:103FF00000E0002050B900BF502080F31188BFF3CB
:104000004F8FBFF36F8F00BF00BFFEE7A06941195C
:104010002B462A462046FFF703FF11E094F82400C0
:1040200000F0020018B9204600F0CEFB05E094F83D
:10403000240020F0010084F8240001E0FFE700BF25
:1040400000BF002203A90448006801F003FA002819
:104050007FF46BAF06B070BD80000020F8B5054658
:104060000C4600F0D9FD684600F04CF80646009872
:1040700020BB44B9B54206D802F01EF831462846A6
:10408000FFF716FF1CE03CB10E480068006808B955
:10409000012000E000200446A91B22460A480068CF
:1040A00000F042FC02F008F850B94FF08050074988
:1040B0000860BFF34F8FBFF36F8F01E001F0FCFF8B
:1040C000F8BD00007C0000208000002004ED00E02E
:1040D0000A490968096809B9012100E0002121B1F4
:1040E0004FF0FF31064A116006E004490968C968CB
:1040F000C868034A41681160704700004000002012
:104100006C00002070B5044601F0C8FD0546074864
:104110000068854204D200F00BF80120206001E025
:104120000020206001480560284670BD88000020FE
:104130002DE9F84334E025480068C0680568234845
:104140000068C068C468201D00F094FA2046216A07
:10415000884794F8240000F0040008B3A0694619C9
:10416000AE4207D966602461211D1848006800F03E
:10417000BDFA15E0002003462A460146009020467D
:1041800002F058F8074657B900BF502080F3118855
:10419000BFF34F8FBFF36F8F00BF00BFFEE700BFBD
:1041A0000A480068006808B9012000E000200028E3
:1041B000C1D00648D0F8008005480068034908606F
:1041C0000348C0F80080BDE8F883000078000020B4
:1041D0007C0000200E480068401C08B9012000E067
:1041E000002050B900BF502080F31188BFF34F8FDB
:1041F000BFF36F8F00BF00BFFEE700BF502080F30A
:104200001188BFF34F8FBFF36F8F00BF00BFFEE772
:10421000A400002008B500BF6846FFF7B7FC0446BD
:1042200020460099FFF71AFFFFF77CFEF4E770B510
:10423000044600F081FA94F9455010E0606A08B92C
:10424000012000E0002038B904F1240001F0E8FE6C
:1042500018B100F0C9FB00E003E0681E45B2002D74
:10426000ECDC00BFFF2084F8450000F08FFA00F07E
:1042700063FA94F9445010E0206908B9012000E085
:10428000002048B904F1100001F0CAFE08B100F0A6
:10429000ABFB681E45B200E001E0002DECDC00BF86
:1042A000FF2084F8440000F071FA70BD2DE9F04160
:1042B00004464FF0000800F0AFFC4648006808B91B
:1042C000FFF778FC44480068204000286BD1D4B147
:1042D000083404F00700B0B104F00700C0F1080092
:1042E000044404F0070008B9012000E0002050B9A0
:1042F00000BF502080F31188BFF34F8FBFF36F8F43
:1043000000BF00BFFEE7002C4DD034480068844257
:1043100049D8334E3046056801E02E462D6868685E
:10432000A04202D228680028F7D12A4800688542B6
:1043300039D0306800F10808286830606868001BD0
:10434000102819D92F1907F0070008B9012000E03B
:10435000002050B900BF502080F31188BFF34F8F69
:10436000BFF36F8F00BF00BFFEE76868001B786077
:104370006C603846FFF720FD184968680968081A1C
:10438000164908600846006816490968884203D241
:1043900012480068134908600F49686809680843B3
:1043A00068600020286001F087FE08F0070008B967
:1043B000012000E0002050B900BF502080F3118898
:1043C000BFF34F8FBFF36F8F00BF00BFFEE74046C4
:1043D000BDE8F08194000020A0000020980000209B
:1043E0008C0000209C0000200648006830B1054980
:1043F000096801F14800896C491C016001480068A6
:10440000704700003C000020001F4FF080730360E5
:10441000001F21F001030360001F054B03601438E7
:104420000260001F6FF00203036020387047000035
:10443000D541000870B58CB00646002428213046CE
:10444000FBF792FF00200A900B9028216846FBF7AB
:104450008BFF2AE01F4801680AA8FEF7AFFF0AA8F1
:10446000FFF744F8012800D126E00AA8FFF74AF830
:10447000012814D10AA8FFF750F880B9684600EB6C
:104480008400DDF82A10016012480068FEF79EFEE5
:1044900010480068C01D0F490860641C05E00D4805
:1044A0000068FEF779FF0B4908600A4800680A496E
:1044B000884201D20A2CCDDB00BF002503E01DF8A5
:1044C000050070556D1CB5EB840FF8DBA0000CB037
:1044D00070BD000024000020FFFF0E0886B0012000
:1044E000FFF75FF8FBF798FFFEF7ACFF0120FFF73F
:1044F00058F8002600BF4FF0FF3202216846FFF750
:10450000FBF89DE8070003AB07C303980828F2D126
:10451000FEF73CFF0446761C7D2EECDD7CB94FF4A3
:104520007A731B2207490848FDF7BEFA05480A308E
:1045300000F0C0FB0546012D01D100F007F8002670
:10454000D9E70000F00C0020B000002010B50446B0
:104550004FF0FF3105480068FFF76AF8044804701F
:1045600002480068FFF73CF810BD0000080000207A
:104570000400002000B58FB01C220C4908A8FBF7EE
:10458000DAFE002108A8FFF7E8F8094908601C22B4
:1045900006491C3101A8FBF7CEFE002101A8FFF758
:1045A000DCF8044908600FB000BD0000E4620008B8
:1045B0000C0000201000002010B501220249034821
:1045C000FDF79AFE10BD00009008002008010020B1
:1045D00000BF1248007812490978884205D00F4878
:1045E0000078401C0D49087014E00C4800780C4914
:1045F000097888420ED10A48007800280ADD202177
:104600000848FCF775FCFFF7D7F80020034908704D
:10461000FEF7F2FD0120FEF7C4FFDAE719000020E3
:10462000180000200000024000BF0120FEF7B9FF83
:104630000C480078012811D94FF0FF310A48006872
:10464000FEF7F6FF4FF4FA63064802780749084878
:10465000FDF7D3FE04480068FEF7C2FFFEF7DAFD5F
:10466000E3E700001A0000201400002008090020E1
:104670000801002001460A69D1E901309860D1E9BA
:10468000010358605068884201D18868506000205A
:1046900008611068401E106010687047034B03608B
:1046A000034B0B608023136070470000A8010020BB
:1046B000FC010020034B0360034B0B604FF480733D
:1046C00013607047FC0300205004002000F1080133
:1046D00041604FF0FF31816000F10801C16001616C
:1046E00000210160704700210161704710B502464A
:1046F0000B685C1C0CB9106907E002F1080000E0CF
:104700004068446824689C42FAD944684C604C680C
:10471000A160886041600A611468641C146010BD67
:1047200042684A6093688B60936859609160086141
:1047300003685B1C0360704700BF502080F3118842
:10474000BFF34F8FBFF36F8F00BF0E480068401C50
:104750000C49086008460068012812D10A48006820
:10476000C0B208B9012000E0002050B900BF5020BD
:1047700080F31188BFF34F8FBFF36F8F00BF00BF6F
:10478000FEE77047A400002004ED00E00D4800683B
:1047900050B900BF502080F31188BFF34F8FBFF393
:1047A0006F8F00BF00BFFEE706480068401E054946
:1047B00008600846006820B9002080F3118800BF17
:1047C00000BF7047A400002070B506463546002E95
:1047D0003FD0083D2C461F4960680968084008B171
:1047E000012000E0002050B900BF502080F3118864
:1047F000BFF34F8FBFF36F8F00BF00BFFEE720688E
:1048000008B9012000E0002050B900BF502080F31B
:104810001188BFF34F8FBFF36F8F00BF00BFFEE75C
:104820000C4960680968084098B1206888B909494E
:10483000606809688843606000F0EEF906496068C6
:1048400009680844044908602046FFF7B5FA01F0FA
:1048500033FC70BDA00000209800002000204FF025
:10486000E02108618861064800684FF47A71B0FB66
:10487000F1F0401E4FF0E0214861072008617047C9
:104880003800002070B5FBF70FFD0446102C16D33E
:1048900004F1E02090F8F05315480078854201DBE0
:1048A000012000E0002050B900BF502080F31188A3
:1048B000BFF34F8FBFF36F8F00BF00BFFEE70D4800
:1048C000006800F4E0600C490968884201D80120C2
:1048D00000E0002050B900BF502080F31188BFF3E2
:1048E0004F8FBFF36F8F00BF00BFFEE770BD0000AA
:1048F000A80000200CED00E0AC00002002460020E3
:104900000BE0084B53F8303033B9064B43F8301006
:1049100003EBC0035A6002E0401C0828F1D300BF3B
:10492000704700002C0D00202DE9F04105460E4691
:1049300017462C46FFF700FF94F94400401C10B9BD
:10494000002084F8440094F94500401C10B9002070
:1049500084F84500FFF71AFFA06B28B93A463146A4
:1049600004F1240000F062F82046FFF760FCBDE887
:10497000F081000070B504460025D4B112480068EB
:1049800008B9012000E0002050B900BF502080F39A
:104990001188BFF34F8FBFF36F8F00BF00BFFEE7DB
:1049A00000F03AF900212046FEF766FF01F084FB93
:1049B00005463DB94FF0805004490860BFF34F8F62
:1049C000BFF36F8F70BD00007400002004ED00E0A5
:1049D00003490968016003490968416070470000A4
:1049E0006400002050000020012001490860704749
:1049F0006000002070B504460D4654B900BF502039
:104A000080F31188BFF34F8FBFF36F8F00BF00BFDC
:104A1000FEE70548016818312046FFF767FE0121CF
:104A20002846FEF729FF70BD3C00002070B5054602
:104A30000E46144655B900BF502080F31188BFF3CD
:104A40004F8FBFF36F8F00BF00BFFEE706480168BE
:104A500018312846FFF764FE0CB14FF0FF362146AF
:104A60003046FEF709FF70BD3C0000202DE9F047FD
:104A700006460F4634464FF00109002E67D0A06C61
:104A800050B900BF502080F31188BFF34F8FBFF3A0
:104A90006F8F00BF00BFFEE7606CB84201D23D4699
:104AA00000E0656CE06AA84251D0A06C01284ED1AC
:104AB00028480068844201D0012000E0002050B95D
:104AC00000BF502080F31188BFF34F8FBFF36F8F6B
:104AD00000BF00BFFEE7D4F82C80E562A06900F0BB
:104AE000004010B9C5F10700A06108EB88011A4A1F
:104AF00002EB81016069884201D1012000E00020C1
:104B000028B3201DFFF7B6FD78B9E06A00EB8000FE
:104B1000114951F8200040B994F82C100120884028
:104B20000E49096881430D48016094F82C1001205A
:104B300088400A490968084308490860E16A01EBAE
:104B40008101054A02EB8100211DFFF7E9FDBDE867
:104B5000F08700003C0000206C0D00205400002075
:104B600010B586B000200590049003AA04A905A8FA
:104B7000FFF794FD0022DDE904101346CDE9002182
:104B800002901EA11F48039A00F0D2FE1E49086041
:104B90000846006808B1012400E00024012C02D17D
:104BA00001F00CFB0446012C15D100BF502080F30E
:104BB0001188BFF34F8FBFF36F8F00BF4FF0FF30EF
:104BC000124908600120124908600020114908605C
:104BD00000F0BAF810E0601C08B1012000E00020ED
:104BE00050B900BF502080F31188BFF34F8FBFF33F
:104BF0006F8F00BF00BFFEE706B010BD49444C45B3
:104C000000000000313C0008700000206C00002013
:104C1000580000205000002002480068401C014954
:104C200008607047740000201D48006818B101201A
:104C30001C49086032E000201A4908601A480068E0
:104C4000B0FA80F0C0F11F0101EB8100174A52F861
:104C5000200008B1012000E0002050B900BF502022
:104C600080F31188BFF34F8FBFF36F8F00BF00BF7A
:104C7000FEE701EB81020D4B03EB820042685268B4
:104C8000426000F108024368934202D142685268D0
:104C900042604268D268064B1A6000BF704700004D
:104CA0007400002060000020540000206C0D0020E3
:104CB0003C0000202DE9F04387B006464FF0000984
:104CC000FEF732FC002837D1FBF7DCFFFF20009015
:104CD00055200190002404E0315DA01C4DF8201007
:104CE000641C042CF8DBAA20069000241EE000259A
:104CF00000BF5DF82400C31707463A461148016813
:104D00000020FBF773FF81466D1C0520FBF750FF69
:104D1000B9F1000F01D0052DEBDB052D00DD07E01B
:104D200008480068401C07490860641C072CDEDB4B
:104D300000BFFBF751FF01E04FF00109484607B003
:104D4000BDE8F083200000201CB55248006852499D
:104D5000884201D0012000E0002050B900BF50205F
:104D600080F31188BFF34F8FBFF36F8F00BF00BF79
:104D7000FEE7484800684849491E884201D00120A2
:104D800000E0002050B900BF502080F31188BFF32D
:104D90004F8FBFF36F8F00BF00BFFEE73F4908464C
:104DA00000780190FF200A461070084600780090B5
:104DB0009DF8000000F0F0009DF80020904201D125
:104DC000012000E0002050B900BF502080F311887E
:104DD000BFF34F8FBFF36F8F00BF00BFFEE79DF89B
:104DE000000000F050002E4A107007202D4A10607D
:104DF00009E02C480068401E2A4A10609DF8000017
:104E00004006000E00909DF8000000F08000802811
:104E1000EFD024480068C0F10700042801D1012028
:104E200000E0002050B900BF502080F31188BFF38C
:104E30004F8FBFF36F8F00BF00BFFEE719480068B8
:104E40000002184A10601046008800F4E06010600C
:104E5000124A019810700F482030006840F470002A
:104E60000C49203108600846006840F07040086036
:104E7000FFF7F4FC00200C490860FBF7DDF90B4854
:104E8000006840F0404009490860FBF7C1F9002084
:104E90001CBD000000ED00E071C20F4100E400E025
:104EA000A8000020AC000020A400002034EF00E0A7
:104EB0002DE9F04104460126002722460021012069
:104EC00000F01CF805462846FEF7C6FE2846BDE859
:104ED000F0812DE9F84304460D4601274FF0000804
:104EE0002B46002211460120009400F037F80646B8
:104EF0003046FEF7B1FE3046BDE8F8832DE9F843B1
:104F000005460E4690460DB1012000E0002050B944
:104F100000BF502080F31188BFF34F8FBFF36F8F16
:104F200000BF00BFFEE70EB9002701E005FB06F752
:104F300007F14800FFF7BAF9044664B1A14609F148
:104F40004809002084F8460043464A463146284630
:104F50000094FEF790FE2046BDE8F8832DE9F84363
:104F600080460E4617461D46DDF82090B8F1000F2A
:104F700001D0012000E0002050B900BF502080F394
:104F80001188BFF34F8FBFF36F8F00BF00BFFEE7E5
:104F90000DB1012000E0002050B900BF502080F387
:104FA0001188BFF34F8FBFF36F8F00BF00BFFEE7C5
:104FB00007B10EB1012000E0002050B900BF502021
:104FC00080F31188BFF34F8FBFF36F8F00BF00BF17
:104FD000FEE707B90EB9012000E0002050B900BF7C
:104FE000502080F31188BFF34F8FBFF36F8F00BF46
:104FF00000BFFEE7482000900098482801D101201A
:1050000000E0002050B900BF502080F31188BFF3AA
:105010004F8FBFF36F8F00BF00BFFEE700BF2C466E
:105020004CB1012084F846004B463A463146404692
:105030000094FEF720FE2046BDE8F88370B50546D3
:105040000E462C4654B900BF502080F31188BFF3A0
:105050004F8FBFF36F8F00BF00BFFEE7FFF76CFB02
:10506000D4E90F12206801FB0200A0600020A063B9
:1050700020686060E06B401E226C216800FB02111A
:10508000E160FF2084F8440084F845009EB920695F
:1050900008B9012000E00020A8B904F1100000F0D8
:1050A000BFFF80B14FF0805009490860BFF34F8FB8
:1050B000BFF36F8F07E004F11000FFF707FB04F167
:1050C0002400FFF703FBFFF761FB012070BD000028
:1050D00004ED00E02DE9FF4383B0064688461D46F7
:1050E0004FF00009344654B900BF502080F31188B6
:1050F000BFF34F8FBFF36F8F00BF00BFFEE7B8F164
:10510000000F01D1206C08B9012000E0002050B947
:1051100000BF502080F31188BFF34F8FBFF36F8F14
:1051200000BF00BFFEE7022D02D1E06B012801D1D4
:10513000012000E0002050B900BF502080F311880A
:10514000BFF34F8FBFF36F8F00BF00BFFEE700F0CC
:1051500095FD08B9059808B9012000E0002050B974
:1051600000BF502080F31188BFF34F8FBFF36F8FC4
:1051700000BF00BFFEE700BFFFF7DEFAA06BE16BE8
:10518000884201D3022D28D12A4641462046FEF707
:105190008CFC0746606A08B9012000E0002068B96D
:1051A00004F1240000F03CFF88B14FF080503249F8
:1051B0000860BFF34F8FBFF36F8F08E03FB14FF030
:1051C00080502D490860BFF34F8FBFF36F8FFFF7FB
:1051D000DDFA012007B0BDE8F083059818B9FFF7A4
:1051E000D5FA0020F6E7B9F1000F04D101A8FFF7C6
:1051F000EFFB4FF00109FFF7C9FAFFF70DFDFFF7CD
:105200009BFA94F94400401C10B9002084F8440033
:1052100094F94500401C10B9002084F84500FFF7C0
:10522000B5FA05A901A800F00BFBF0B92046FEF77E
:1052300030FEA0B104F110000599FFF7DBFB20461A
:10524000FEF7F5FF00F038FF002895D14FF08050B1
:1052500009490860BFF34F8FBFF36F8F8CE720467B
:10526000FEF7E5FF00F028FF86E72046FEF7DFFFA8
:1052700000F022FF0020ADE704ED00E02DE9F05F33
:1052800007468A4690461E463C4654B900BF502009
:1052900080F31188BFF34F8FBFF36F8F00BF00BF44
:1052A000FEE7BAF1000F01D1206C08B9012000E03F
:1052B000002050B900BF502080F31188BFF34F8FFA
:1052C000BFF36F8F00BF00BFFEE7022E02D1E06B7D
:1052D000012801D1012000E0002050B900BF50207A
:1052E00080F31188BFF34F8FBFF36F8F00BF00BFF4
:1052F000FEE7FFF7C7FA00BF5021EFF3118081F3FB
:105300001188BFF34F8FBFF36F8F00BF0546A06BAF
:10531000E16B884201D3022E23D194F945B0324685
:1053200051462046FEF7C1FB0BF1010088B9606AC7
:1053300008B9012000E0002080B904F1240000F049
:105340006FFE58B1B8F1000F08D00120C8F8000076
:1053500004E00BF1010040B284F845004FF0010970
:1053600001E04FF0000900BF85F3118800BF4846F7
:10537000BDE8F09F2DE9F04706460F46344654B984
:1053800000BF502080F31188BFF34F8FBFF36F8FA2
:1053900000BF00BFFEE7206C08B9012000E000203C
:1053A00050B900BF502080F31188BFF34F8FBFF377
:1053B0006F8F00BF00BFFEE7206808B9A06808B97A
:1053C000012000E0002050B900BF502080F3118878
:1053D000BFF34F8FBFF36F8F00BF00BFFEE7FFF734
:1053E00051FA00BF5021EFF3118081F31188BFF310
:1053F0004F8FBFF36F8F00BF0546D4F83890E06B36
:1054000048451ED994F945A009F10100A0630AF1AD
:10541000010070B9606A08B9012000E0002068B995
:1054200004F1240000F0FCFD40B13FB101203860E0
:1054300004E00AF1010040B284F845004FF0010891
:1054400001E04FF0000800BF85F3118800BF40461F
:10545000BDE8F0872DE9F74183B005460E464FF0D1
:1054600000082C4654B900BF502080F31188BFF3C8
:105470004F8FBFF36F8F00BF00BFFEE70EB9206CE8
:1054800008B9012000E0002050B900BF502080F38F
:105490001188BFF34F8FBFF36F8F00BF00BFFEE7D0
:1054A00000F0ECFB08B9059808B9012000E00020E5
:1054B00050B900BF502080F31188BFF34F8FBFF366
:1054C0006F8F00BF00BFFEE700BFFFF735F9A76B86
:1054D000F7B131462046FEF7D3FA781EA063206963
:1054E00008B9012000E0002060B904F1100000F0CC
:1054F00097FD38B14FF080502F490860BFF34F8FB0
:10550000BFF36F8FFFF742F9012006B0BDE8F081CD
:10551000059818B9FFF73AF90020F6E7B8F1000F3F
:1055200004D101A8FFF754FA4FF00108FFF72EF954
:10553000FFF772FBFFF700F994F94400401C10B923
:10554000002084F8440094F94500401C10B9002064
:1055500084F84500FFF71AF905A901A800F070F9D1
:10556000F0B92046FEF788FCA0B104F124000599AB
:10557000FFF740FA2046FEF75AFE00F09DFD002896
:10558000A3D14FF080500C490860BFF34F8FBFF399
:105590006F8F9AE72046FEF74AFE00F08DFD94E7F4
:1055A0002046FEF744FE00F087FD2046FEF764FC2F
:1055B00000288AD00020A8E704ED00E02DE9F05F84
:1055C000064689461746344654B900BF502080F33A
:1055D0001188BFF34F8FBFF36F8F00BF00BFFEE78F
:1055E000B9F1000F01D1206C08B9012000E00020C2
:1055F00050B900BF502080F31188BFF34F8FBFF325
:105600006F8F00BF00BFFEE7FFF73CF900BF5021DE
:10561000EFF3118081F31188BFF34F8FBFF36F8FCA
:1056200000BF0546D4F838A0BAF1000F22D094F993
:1056300044B049462046FEF723FAAAF10100A063D0
:105640000BF1010070B9206908B9012000E00020C9
:1056500068B904F1100000F0E3FC40B13FB1012053
:10566000386004E00BF1010040B284F844004FF0D0
:10567000010801E04FF0000800BF85F3118800BF6A
:105680004046BDE8F09F00002DE9F34182B0054699
:105690004FF000082C46002654B900BF502080F37C
:1056A0001188BFF34F8FBFF36F8F00BF00BFFEE7BE
:1056B000206C08B9012000E0002050B900BF502044
:1056C00080F31188BFF34F8FBFF36F8F00BF00BF10
:1056D000FEE700F0D3FA08B9039808B9012000E00A
:1056E000002050B900BF502080F31188BFF34F8FC6
:1056F000BFF36F8F00BF00BFFEE700BFFFF71CF8CE
:10570000A76BFFB1781EA063206810B9FEF76CFE8E
:10571000A060206908B9012000E0002060B904F110
:10572000100000F07DFC38B14FF080504349086014
:10573000BFF34F8FBFF36F8FFFF728F8012004B03E
:10574000BDE8F081039898B90EB9012000E000206F
:1057500050B900BF502080F31188BFF34F8FBFF3C3
:105760006F8F00BF00BFFEE7FFF710F80020E6E7ED
:10577000B8F1000F04D16846FFF72AF94FF001088D
:10578000FFF704F8FFF748FAFEF7D6FF94F9440054
:10579000401C10B9002084F8440094F94500401CD6
:1057A00010B9002084F84500FEF7F0FF03A9684611
:1057B00000F046F840BB2046FEF75EFBF0B12068E3
:1057C00038B9FEF7B9FFA06800F0C6FB0646FEF741
:1057D000DDFF04F124000399FFF70CF92046FEF7E2
:1057E00026FD00F069FC002888D14FF08050134955
:1057F0000860BFF34F8FBFF36F8F7FE72046FEF740
:1058000016FD00F059FC79E72046FEF710FD00F088
:1058100053FC2046FEF730FB0028EED05EB1FEF7C9
:105820008BFF2046FEF7A8F907463946A068FFF728
:105830001DF9FEF7ABFF002081E7000004ED00E05A
:1058400070B505460C4655B900BF502080F311884D
:10585000BFF34F8FBFF36F8F00BF00BFFEE754B998
:1058600000BF502080F31188BFF34F8FBFF36F8FBD
:1058700000BF00BFFEE7FEF75FFF124802686868DE
:10588000131A2068401C08B9002617E00E49286842
:105890000968884204D06868904201D801260DE06A
:1058A0002068984207D92068C01A20602846FFF770
:1058B0008FF8002602E0002020600126FEF766FF38
:1058C000304670BD50000020640000202DE9FF4FDD
:1058D00085B0804689461746DDE912ABB800FEF771
:1058E000E5FC064656B15420FEF7E0FC04460CB138
:1058F000266304E03046FEF767FF00E000248CB129
:10590000002084F85100CDE900ABCDE902403A46D1
:1059100049464046089BFEF7C1F92046FDF7F8FFCF
:10592000012501E04FF0FF35284609B0BDE8F08FB2
:105930002DE9F04F85B00746884691469A46DDE945
:105940000EB6109C0EB1012000E0002050B900BF3F
:10595000502080F31188BFF34F8FBFF36F8F00BFCC
:1059600000BFFEE70CB1012000E0002050B900BFED
:10597000502080F31188BFF34F8FBFF36F8F00BFAC
:1059800000BFFEE7542003900398542801D1012062
:1059900000E0002050B900BF502080F31188BFF311
:1059A0004F8FBFF36F8F00BF00BFFEE700BFB4B1E2
:1059B000AEB125462C462E63022085F8510000200A
:1059C00004A953464A46CDE900B1CDE9025041460B
:1059D0003846FEF763F92846FDF79AFF01E00020FC
:1059E0000490049805B0BDE8F08F00002DE9F04761
:1059F00006460D46174698464FF0010A56B900BFB5
:105A0000502080F31188BFF34F8FBFF36F8F00BF1B
:105A100000BFFEE73446FEF78FFEB8F1000F02D05C
:105A2000E06CC8F8000094F85090022084F8500010
:105A3000052F17D2DFE807F01503070B0D00E06C08
:105A40002843E06421E0E06C401CE0641DE0E56474
:105A50001BE0B9F1020F01D0E56401E04FF0000A4C
:105A600013E012E0E06C401C08B9012000E00020C7
:105A700050B900BF502080F31188BFF34F8FBFF3A0
:105A80006F8F00BF00BFFEE700BF00BFB9F1010F7D
:105A900033D1201DFEF7EEFD94F82C100120884034
:105AA00018490968084317490860E16A01EB810158
:105AB000154A02EB8100211DFEF732FEA06A08B9EB
:105AC000012000E0002050B900BF502080F3118871
:105AD000BFF34F8FBFF36F8F00BF00BFFEE70B49CF
:105AE000E06A0968C96A884207D94FF080500849BE
:105AF0000860BFF34F8FBFF36F8FFEF747FE50462E
:105B0000BDE8F087540000206C0D00203C00002010
:105B100004ED00E02DE9F84F07460E469046994601
:105B2000DDF828B00120009057B900BF502080F365
:105B30001188BFF34F8FBFF36F8F00BF00BFFEE729
:105B4000FEF7A0FE3C4600BF5021EFF3118081F329
:105B50001188BFF34F8FBFF36F8F00BF0546B9F1B8
:105B6000000F02D0E06CC9F8000094F850A00220A9
:105B700084F85000B8F1050F17D2DFE808F01503DC
:105B8000070B0D00E06C3043E06421E0E06C401C4A
:105B9000E0641DE0E6641BE0BAF1020F01D0E664A8
:105BA00001E00020009013E012E0E06C401C08B916
:105BB000012000E0002050B900BF502080F3118880
:105BC000BFF34F8FBFF36F8F00BF00BFFEE700BF73
:105BD00000BFBAF1010F3DD1A06A08B9012000E071
:105BE000002050B900BF502080F31188BFF34F8FC1
:105BF000BFF36F8F00BF00BFFEE71A480068A8B967
:105C0000201DFEF737FD94F82C100120884016491E
:105C10000968084314490860E16A01EB8101134AED
:105C200002EB8100211DFEF77BFD04E004F1180169
:105C30000F48FEF775FD0F49E06A0968C96A884296
:105C400008D9BBF1000F02D00120CBF800000120E1
:105C50000949086000BF85F3118800BF0098BDE8BE
:105C6000F88F000074000020540000206C0D00200C
:105C7000200E00203C00002060000020054909683B
:105C800009B9012005E00449096809B9022000E0CA
:105C90000020704758000020740000200149086867
:105CA00070470000500000202DE9F0414FF000083F
:105CB00044480068002877D143480068451C4248A2
:105CC000056015BB41480068006808B9012000E084
:105CD000002050B900BF502080F31188BFF34F8FD0
:105CE000BFF36F8F00BF00BFFEE738480768384832
:105CF0000068364908603648076036480068401C2E
:105D000034490860FEF7E4F900BF33480068854273
:105D10003CD300BF2D480068006808B9012000E0AE
:105D2000002020B14FF0FF302B4908602DE02748BC
:105D30000068C068C4686668B54202D2264806603A
:105D400023E0201DFEF796FCA06A18B104F11800AC
:105D5000FEF790FC94F82C10012088401F49096838
:105D600008431E490860E16A01EB81011C4A02EB0D
:105D70008100211DFEF7D4FC1A49E06A0968C96A4E
:105D80008842C7D34FF00108C4E700BF1548006838
:105D9000C06A00EB8000124951F82000012801D9A7
:105DA0004FF0010805E0FFE70F480068401C0E496E
:105DB00008600E48006808B14FF001084046BDE891
:105DC000F0810000740000205000002040000020FE
:105DD00044000020640000206C00002054000020DB
:105DE0006C0D00203C0000205C00002060000020C2
:105DF0002DE9F0410746884614461D46FEF79CFCF7
:105E00002148006890F85000022818D01E490968FF
:105E100001F14C00C96CB943016001201A490968BD
:105E200081F850005DB101212846FDF725FD4FF0B6
:105E3000805016490860BFF34F8FBFF36F8FFEF796
:105E4000A5FCFEF779FC1CB10F480068C06C20600F
:105E50000D48006890F85000022801D0002608E0A4
:105E60000949096801F14C00C96C21EA0801016087
:105E7000012600200449096881F85000FEF786FCDD
:105E80003046BDE8F08100003C00002004ED00E059
:105E900070B505462C460026002D55D02B480068CD
:105EA000844201D1012000E0002050B900BF502001
:105EB00080F31188BFF34F8FBFF36F8F00BF00BF18
:105EC000FEE7A06C50B900BF502080F31188BFF3EB
:105ED0004F8FBFF36F8F00BF00BFFEE7A06C401E67
:105EE000A064616CE06A88422ED0A06C60BB201D6B
:105EF000FEF7C0FB78B9E06A00EB8000144951F866
:105F0000200040B994F82C100120884011490968FC
:105F1000814310480160606CE062E06AC0F10700F4
:105F2000A06194F82C10012088400A4909680843B0
:105F300008490860E16A01EB8101054A02EB810032
:105F4000211DFEF7EDFB0126304670BD3C00002010
:105F50006C0D00205400002070B505462C4600262C
:105F6000002D54D02B49E06A0968C96A884247D29B
:105F7000A06900F0004028B926480068C06AC0F156
:105F80000700A061E16A01EB8101234A02EB810174
:105F90006069884201D1012000E0002050B3201D3B
:105FA000FEF768FB78B9E06A00EB80001A4951F807
:105FB000200040B994F82C10012088401749096846
:105FC00081431648016013480068C06AE06294F893
:105FD0002C10012088401149096808430F490860C6
:105FE000E16A01EB81010C4A02EB8100211DFEF701
:105FF00097FB03E007480068C06AE062012606E0FC
:106000000449606C0968C96A884200D2012630469A
:1060100070BD00003C0000206C0D002054000020EA
:1060200070B50646F068C46854B900BF502080F3CC
:106030001188BFF34F8FBFF36F8F00BF00BFFEE724
:1060400004F11800FEF716FB15480068A8B9201DDA
:10605000FEF710FB94F82C100120884011490968C4
:10606000084310490860E16A01EB81010E4A02EB26
:106070008100211DFEF754FB04E004F118010B48D8
:10608000FEF74EFB0A49E06A0968C96A884204D9EA
:10609000012501200749086000E00025284670BD61
:1060A00074000020540000206C0D0020200E002001
:1060B0003C0000206000002070B500240026364817
:1060C000006850B900BF502080F31188BFF34F8F94
:1060D000BFF36F8F00BF00BFFEE7FEF72DFB2E481A
:1060E0000068401E2C4908600846006800284FD10F
:1060F0002A48006800284BD024E02948C068C468BA
:1061000004F11800FEF7B6FA201DFEF7B3FA94F872
:106110002C10012088402349096808432149086060
:10612000E16A01EB8101204A02EB8100211DFEF7AB
:10613000F7FA1E49E06A0968C96A884202D3012059
:106140001B4908601648006808B9012000E00020DB
:106150000028D2D00CB1FDF7BBFF1648056865B129
:1061600000BFFFF7A1FD10B10120114908606D1EAD
:10617000002DF6D100200F4908600D48006838B1A5
:10618000012630070C490860BFF34F8FBFF36F8FB4
:10619000FEF7FCFA304670BD740000204C00002071
:1061A000200E0020540000206C0D00203C00002038
:1061B000600000205C00002004ED00E010B586B017
:1061C0000024FDF7FFFB16480068D0B100200590C1
:1061D000049003AA04A905A8FEF76CFA0222DDE9DF
:1061E00004100023CDE9002102900EA10F48039A6C
:1061F000FFF79EFB0E4908600846006800B10124C5
:1062000000BF54B900BF502080F31188BFF34F8FF7
:10621000BFF36F8F00BF00BFFEE7204606B010BD82
:1062200080000020546D72205376630015420008F0
:10623000840000202DE9FE4304460D4616461F4605
:10624000DDF828804FF0000954B900BF502080F3DA
:106250001188BFF34F8FBFF36F8F00BF00BFFEE702
:106260001448006810B3009501960294062D15DAC3
:10627000FFF704FD022808D10023424669460D4875
:106280000068FEF727FF814610E000231A466946A2
:1062900008480068FEF71EFF814607E000233A46E3
:1062A000694604480068FEF7E9FF81464846BDE8B4
:1062B000FE830000800000200000000000000000BD
:1062C000746300088528000800000000000000003A
:1062D00000020000000000000000000000000000BC
:1062E0000000000080630008D145000802000000A3
:1062F0000100000000080000000000000000000095
:106300008C6300082946000802000000010000001C
:106310000008000000000000000000009863000872
:10632000B13200080200000001000000000200007D
:106330000000000000000000A8630008DD44000821
:106340000200000001000000000800000000000042
:1063500000000000000610160006101600000000E5
:106360000000000001020304060708090000000005
:106370000102030464656661756C745461736B009B
:106380007561727452785461736B00007561727438
:1063900054785461736B00006465626F756E636559
:1063A0005461736B0000000073616D706C696E67FF
:1063B0005461736B00000000D863000800000020E7
:1063C000B00000009831000888640008B000002088
:1063D000980C0100A8310008000000000200000035
:1063E00000000000000000000000000000000000AD
:1063F000000000000000000000000000000000009D
:10640000000000000000000010000000010000007B
:106410000024F40000000000000000000000000064
:10642000000000000000000000000000000000006C
:10643000000000000000000000000000000000005C
:10644000000000000000000000000000000000004C
:10645000000000000000000000000000000000003C
:10646000000000000000000000000000000000002C
:10647000000000000000000000000000AAAAAAAA74
:08648000000000000000000014
:04000005080001D915
:00000001FF
